{
  "contractName": "ClientRegistration",
  "abi": [
    {
      "inputs": [
        {
          "internalType": "address",
          "name": "credibilityAddress",
          "type": "address"
        }
      ],
      "stateMutability": "nonpayable",
      "type": "constructor"
    },
    {
      "inputs": [
        {
          "internalType": "address",
          "name": "",
          "type": "address"
        }
      ],
      "name": "clients",
      "outputs": [
        {
          "internalType": "int256",
          "name": "credibility",
          "type": "int256"
        },
        {
          "internalType": "int256",
          "name": "ratings",
          "type": "int256"
        },
        {
          "internalType": "uint256",
          "name": "balance",
          "type": "uint256"
        },
        {
          "internalType": "address",
          "name": "owner",
          "type": "address"
        }
      ],
      "stateMutability": "view",
      "type": "function",
      "constant": true
    },
    {
      "inputs": [
        {
          "internalType": "address",
          "name": "",
          "type": "address"
        }
      ],
      "name": "registeredClients",
      "outputs": [
        {
          "internalType": "bool",
          "name": "",
          "type": "bool"
        }
      ],
      "stateMutability": "view",
      "type": "function",
      "constant": true
    },
    {
      "inputs": [],
      "name": "addRatings",
      "outputs": [],
      "stateMutability": "nonpayable",
      "type": "function"
    },
    {
      "inputs": [],
      "name": "clearRegister",
      "outputs": [],
      "stateMutability": "nonpayable",
      "type": "function"
    },
    {
      "inputs": [
        {
          "internalType": "int256",
          "name": "score",
          "type": "int256"
        },
        {
          "internalType": "address",
          "name": "fog",
          "type": "address"
        }
      ],
      "name": "credUpdate",
      "outputs": [],
      "stateMutability": "nonpayable",
      "type": "function"
    },
    {
      "inputs": [],
      "name": "registerClient",
      "outputs": [],
      "stateMutability": "payable",
      "type": "function",
      "payable": true
    }
  ],
  "bytecode": "0x608060405234801561001057600080fd5b5060405162000f9c38038062000f9c833981810160405281019061003491906100de565b80600260006101000a81548173ffffffffffffffffffffffffffffffffffffffff021916908373ffffffffffffffffffffffffffffffffffffffff1602179055505061010b565b600080fd5b600073ffffffffffffffffffffffffffffffffffffffff82169050919050565b60006100ab82610080565b9050919050565b6100bb816100a0565b81146100c657600080fd5b50565b6000815190506100d8816100b2565b92915050565b6000602082840312156100f4576100f361007b565b5b6000610102848285016100c9565b91505092915050565b610e81806200011b6000396000f3fe6080604052600436106100555760003560e01c80630e18c2901461005a57806327759354146100975780634cebc053146100ae57806361eed2a9146100d75780636d9fb28714610117578063db5a5d2a14610121575b600080fd5b34801561006657600080fd5b50610081600480360381019061007c919061088c565b610138565b60405161008e91906108d4565b60405180910390f35b3480156100a357600080fd5b506100ac610158565b005b3480156100ba57600080fd5b506100d560048036038101906100d09190610925565b6101f9565b005b3480156100e357600080fd5b506100fe60048036038101906100f9919061088c565b61041d565b60405161010e949392919061099c565b60405180910390f35b61011f61046d565b005b34801561012d57600080fd5b50610136610730565b005b60006020528060005260406000206000915054906101000a900460ff1681565b60008060003373ffffffffffffffffffffffffffffffffffffffff1673ffffffffffffffffffffffffffffffffffffffff16815260200190815260200160002060006101000a81548160ff0219169083151502179055506000600160003373ffffffffffffffffffffffffffffffffffffffff1673ffffffffffffffffffffffffffffffffffffffff16815260200190815260200160002060020181905550565b6000600260009054906101000a900473ffffffffffffffffffffffffffffffffffffffff1673ffffffffffffffffffffffffffffffffffffffff16630e67612784846040518363ffffffff1660e01b81526004016102589291906109e1565b602060405180830381865afa158015610275573d6000803e3d6000fd5b505050506040513d601f19601f820116820180604052508101906102999190610a1f565b905080600160003373ffffffffffffffffffffffffffffffffffffffff1673ffffffffffffffffffffffffffffffffffffffff16815260200190815260200160002060010160008282546102ed9190610a7b565b9250508190555060008113156103675780600561030a9190610b0f565b600160003373ffffffffffffffffffffffffffffffffffffffff1673ffffffffffffffffffffffffffffffffffffffff168152602001908152602001600020600201600082825461035b9190610c26565b92505081905550610418565b6103bf8160056103779190610b0f565b600160003373ffffffffffffffffffffffffffffffffffffffff1673ffffffffffffffffffffffffffffffffffffffff16815260200190815260200160002060020154610810565b600160003373ffffffffffffffffffffffffffffffffffffffff1673ffffffffffffffffffffffffffffffffffffffff16815260200190815260200160002060020160008282546104109190610c7c565b925050819055505b505050565b60016020528060005260406000206000915090508060000154908060010154908060020154908060030160009054906101000a900473ffffffffffffffffffffffffffffffffffffffff16905084565b6000803373ffffffffffffffffffffffffffffffffffffffff1673ffffffffffffffffffffffffffffffffffffffff16815260200190815260200160002060009054906101000a900460ff1661056b5760003373ffffffffffffffffffffffffffffffffffffffff16346040516104e390610ce1565b60006040518083038185875af1925050503d8060008114610520576040519150601f19603f3d011682016040523d82523d6000602084013e610525565b606091505b5050905080610569576040517f08c379a000000000000000000000000000000000000000000000000000000000815260040161056090610d53565b60405180910390fd5b505b6000803373ffffffffffffffffffffffffffffffffffffffff1673ffffffffffffffffffffffffffffffffffffffff16815260200190815260200160002060009054906101000a900460ff16156105f7576040517f08c379a00000000000000000000000000000000000000000000000000000000081526004016105ee90610dbf565b60405180910390fd5b60016000803373ffffffffffffffffffffffffffffffffffffffff1673ffffffffffffffffffffffffffffffffffffffff16815260200190815260200160002060006101000a81548160ff021916908315150217905550604051806080016040528060058152602001600081526020013481526020013373ffffffffffffffffffffffffffffffffffffffff16815250600160003373ffffffffffffffffffffffffffffffffffffffff1673ffffffffffffffffffffffffffffffffffffffff16815260200190815260200160002060008201518160000155602082015181600101556040820151816002015560608201518160030160006101000a81548173ffffffffffffffffffffffffffffffffffffffff021916908373ffffffffffffffffffffffffffffffffffffffff160217905550905050565b6064600160003373ffffffffffffffffffffffffffffffffffffffff1673ffffffffffffffffffffffffffffffffffffffff16815260200190815260200160002060020154116107b5576040517f08c379a00000000000000000000000000000000000000000000000000000000081526004016107ac90610e2b565b60405180910390fd5b60018060003373ffffffffffffffffffffffffffffffffffffffff1673ffffffffffffffffffffffffffffffffffffffff16815260200190815260200160002060010160008282546108079190610a7b565b92505081905550565b600081831161081f5781610821565b825b905092915050565b600080fd5b600073ffffffffffffffffffffffffffffffffffffffff82169050919050565b60006108598261082e565b9050919050565b6108698161084e565b811461087457600080fd5b50565b60008135905061088681610860565b92915050565b6000602082840312156108a2576108a1610829565b5b60006108b084828501610877565b91505092915050565b60008115159050919050565b6108ce816108b9565b82525050565b60006020820190506108e960008301846108c5565b92915050565b6000819050919050565b610902816108ef565b811461090d57600080fd5b50565b60008135905061091f816108f9565b92915050565b6000806040838503121561093c5761093b610829565b5b600061094a85828601610910565b925050602061095b85828601610877565b9150509250929050565b61096e816108ef565b82525050565b6000819050919050565b61098781610974565b82525050565b6109968161084e565b82525050565b60006080820190506109b16000830187610965565b6109be6020830186610965565b6109cb604083018561097e565b6109d8606083018461098d565b95945050505050565b60006040820190506109f66000830185610965565b610a03602083018461098d565b9392505050565b600081519050610a19816108f9565b92915050565b600060208284031215610a3557610a34610829565b5b6000610a4384828501610a0a565b91505092915050565b7f4e487b7100000000000000000000000000000000000000000000000000000000600052601160045260246000fd5b6000610a86826108ef565b9150610a91836108ef565b9250817f7fffffffffffffffffffffffffffffffffffffffffffffffffffffffffffffff03831360008312151615610acc57610acb610a4c565b5b817f8000000000000000000000000000000000000000000000000000000000000000038312600083121615610b0457610b03610a4c565b5b828201905092915050565b6000610b1a826108ef565b9150610b25836108ef565b9250827f7fffffffffffffffffffffffffffffffffffffffffffffffffffffffffffffff0482116000841360008413161615610b6457610b63610a4c565b5b817f80000000000000000000000000000000000000000000000000000000000000000583126000841260008413161615610ba157610ba0610a4c565b5b827f80000000000000000000000000000000000000000000000000000000000000000582126000841360008412161615610bde57610bdd610a4c565b5b827f7fffffffffffffffffffffffffffffffffffffffffffffffffffffffffffffff0582126000841260008412161615610c1b57610c1a610a4c565b5b828202905092915050565b6000610c3182610974565b9150610c3c83610974565b9250827fffffffffffffffffffffffffffffffffffffffffffffffffffffffffffffffff03821115610c7157610c70610a4c565b5b828201905092915050565b6000610c8782610974565b9150610c9283610974565b925082821015610ca557610ca4610a4c565b5b828203905092915050565b600081905092915050565b50565b6000610ccb600083610cb0565b9150610cd682610cbb565b600082019050919050565b6000610cec82610cbe565b9150819050919050565b600082825260208201905092915050565b7f4661696c656420746f2073656e64204574686572000000000000000000000000600082015250565b6000610d3d601483610cf6565b9150610d4882610d07565b602082019050919050565b60006020820190508181036000830152610d6c81610d30565b9050919050565b7f436c69656e7420616c726561647920726567697374657265642e000000000000600082015250565b6000610da9601a83610cf6565b9150610db482610d73565b602082019050919050565b60006020820190508181036000830152610dd881610d9c565b9050919050565b7f496e73756666696369656e742062616c616e63652e0000000000000000000000600082015250565b6000610e15601583610cf6565b9150610e2082610ddf565b602082019050919050565b60006020820190508181036000830152610e4481610e08565b905091905056fea26469706673582212203867b4ab7b5590ef8f7c9acabac0a69bd9e7da047fdaf8e9346e973fc3324d7a64736f6c634300080d0033",
  "immutableReferences": {},
  "source": "//SPDX-License-Identifier: MIT\r\npragma solidity ^0.8.0;\r\n\r\nimport './Credibility.sol';\r\n\r\ncontract ClientRegistration {\r\n    struct Client {\r\n        int credibility;\r\n        int ratings;\r\n        uint balance;\r\n        address owner;\r\n    }\r\n    mapping(address => bool) public registeredClients;\r\n    mapping(address => Client) public clients;\r\n\r\n    Credibility credibility;\r\n\r\n    constructor (address credibilityAddress) {\r\n        credibility = Credibility(credibilityAddress);\r\n    }\r\n\r\n    function addRatings() public {\r\n        require(clients[msg.sender].balance > 100, \"Insufficient balance.\");\r\n        clients[msg.sender].ratings += 1;\r\n    }\r\n\r\n    function clearRegister() public {\r\n        registeredClients[msg.sender] = false;\r\n        clients[msg.sender].balance = 0;\r\n    }\r\n\r\n    function max(uint a, uint b) private pure returns (uint) {\r\n        return a > b ? a : b;\r\n    }\r\n    function credUpdate(int score, address fog) public {\r\n        int value = credibility.updateCredibility(score, fog);\r\n        clients[msg.sender].ratings += value;\r\n        if(value > 0) clients[msg.sender].balance += uint(5*value);\r\n        else clients[msg.sender].balance -= max(uint(5*value), clients[msg.sender].balance);\r\n    }\r\n\r\n    function registerClient() external payable {\r\n        if(!registeredClients[msg.sender]) {\r\n            (bool success, ) = msg.sender.call{value: msg.value}(\"\");\r\n            require(success, \"Failed to send Ether\");\r\n        }\r\n        require(!registeredClients[msg.sender], \"Client already registered.\");\r\n        registeredClients[msg.sender] = true;\r\n        clients[msg.sender] = Client(5, 0, msg.value, msg.sender);\r\n    }\r\n}",
  "sourcePath": "C:\\Users\\Kartik\\OneDrive\\Desktop\\cs540\\project\\contracts\\ClientRegistration.sol",
  "compiler": {
    "name": "solc",
    "version": "0.8.13+commit.abaa5c0e.Emscripten.clang"
  },
  "schemaVersion": "3.4.16",
  "updatedAt": "2023-11-22T16:06:13.778Z",
  "networkType": "ethereum",
  "devdoc": {
    "kind": "dev",
    "methods": {},
    "version": 1
  },
  "userdoc": {
    "kind": "user",
    "methods": {},
    "version": 1
  }
}