{
  "contractName": "Credibility",
  "abi": [
    {
      "inputs": [
        {
          "internalType": "address",
          "name": "fogNodeManagementAddress",
          "type": "address"
        }
      ],
      "stateMutability": "nonpayable",
      "type": "constructor"
    },
    {
      "inputs": [
        {
          "internalType": "int256",
          "name": "score",
          "type": "int256"
        },
        {
          "internalType": "address",
          "name": "fog",
          "type": "address"
        }
      ],
      "name": "updateCredibility",
      "outputs": [
        {
          "internalType": "int256",
          "name": "",
          "type": "int256"
        }
      ],
      "stateMutability": "view",
      "type": "function",
      "constant": true
    }
  ],
  "bytecode": "0x608060405234801561001057600080fd5b50604051610493380380610493833981810160405281019061003291906100db565b806000806101000a81548173ffffffffffffffffffffffffffffffffffffffff021916908373ffffffffffffffffffffffffffffffffffffffff16021790555050610108565b600080fd5b600073ffffffffffffffffffffffffffffffffffffffff82169050919050565b60006100a88261007d565b9050919050565b6100b88161009d565b81146100c357600080fd5b50565b6000815190506100d5816100af565b92915050565b6000602082840312156100f1576100f0610078565b5b60006100ff848285016100c6565b91505092915050565b61037c806101176000396000f3fe608060405234801561001057600080fd5b506004361061002b5760003560e01c80630e67612714610030575b600080fd5b61004a600480360381019061004591906101ad565b610060565b60405161005791906101fc565b60405180910390f35b60008060008054906101000a900473ffffffffffffffffffffffffffffffffffffffff1673ffffffffffffffffffffffffffffffffffffffff166346d24995846040518263ffffffff1660e01b81526004016100bc9190610226565b602060405180830381865afa1580156100d9573d6000803e3d6000fd5b505050506040513d601f19601f820116820180604052508101906100fd9190610256565b9050808461010b91906102b2565b91505092915050565b600080fd5b6000819050919050565b61012c81610119565b811461013757600080fd5b50565b60008135905061014981610123565b92915050565b600073ffffffffffffffffffffffffffffffffffffffff82169050919050565b600061017a8261014f565b9050919050565b61018a8161016f565b811461019557600080fd5b50565b6000813590506101a781610181565b92915050565b600080604083850312156101c4576101c3610114565b5b60006101d28582860161013a565b92505060206101e385828601610198565b9150509250929050565b6101f681610119565b82525050565b600060208201905061021160008301846101ed565b92915050565b6102208161016f565b82525050565b600060208201905061023b6000830184610217565b92915050565b60008151905061025081610123565b92915050565b60006020828403121561026c5761026b610114565b5b600061027a84828501610241565b91505092915050565b7f4e487b7100000000000000000000000000000000000000000000000000000000600052601160045260246000fd5b60006102bd82610119565b91506102c883610119565b9250827f80000000000000000000000000000000000000000000000000000000000000000182126000841215161561030357610302610283565b5b827f7fffffffffffffffffffffffffffffffffffffffffffffffffffffffffffffff01821360008412161561033b5761033a610283565b5b82820390509291505056fea2646970667358221220ccec79e48d2ef406a57999239085f96e6987fb6c8a50ff5853e4a563f0ca6d3c64736f6c634300080d0033",
  "immutableReferences": {},
  "source": "//SPDX-License-Identifier: MIT\r\npragma solidity ^0.8.0;\r\n\r\nimport './FogNodeManagement.sol';\r\n\r\ncontract Credibility {\r\n\r\n    FogNodeManagement fognodemanagement;\r\n    constructor (address fogNodeManagementAddress) {\r\n        fognodemanagement = FogNodeManagement(fogNodeManagementAddress);\r\n    }\r\n\r\n    function updateCredibility(int score, address fog) public view returns (int){\r\n        int threshold = fognodemanagement.giveThreshold(fog);\r\n        return (score - threshold);\r\n    }\r\n}",
  "sourcePath": "C:\\Users\\Kartik\\OneDrive\\Desktop\\cs540\\project\\contracts\\Credibility.sol",
  "compiler": {
    "name": "solc",
    "version": "0.8.13+commit.abaa5c0e.Emscripten.clang"
  },
  "schemaVersion": "3.4.16",
  "updatedAt": "2023-11-22T16:06:13.785Z",
  "networkType": "ethereum",
  "devdoc": {
    "kind": "dev",
    "methods": {},
    "version": 1
  },
  "userdoc": {
    "kind": "user",
    "methods": {},
    "version": 1
  }
}