{
  "contractName": "FogNodeManagement",
  "abi": [
    {
      "inputs": [
        {
          "internalType": "address",
          "name": "_address",
          "type": "address"
        }
      ],
      "name": "givefogNodes",
      "outputs": [
        {
          "components": [
            {
              "internalType": "address",
              "name": "owner",
              "type": "address"
            },
            {
              "internalType": "string",
              "name": "location",
              "type": "string"
            },
            {
              "internalType": "uint256",
              "name": "processingCapability",
              "type": "uint256"
            },
            {
              "internalType": "int256[]",
              "name": "ratings",
              "type": "int256[]"
            },
            {
              "internalType": "int256",
              "name": "rating",
              "type": "int256"
            }
          ],
          "internalType": "struct FogNodeManagement.FogNode",
          "name": "",
          "type": "tuple"
        }
      ],
      "stateMutability": "view",
      "type": "function",
      "constant": true
    },
    {
      "inputs": [
        {
          "internalType": "address",
          "name": "_address",
          "type": "address"
        }
      ],
      "name": "giveThreshold",
      "outputs": [
        {
          "internalType": "int256",
          "name": "",
          "type": "int256"
        }
      ],
      "stateMutability": "view",
      "type": "function",
      "constant": true
    },
    {
      "inputs": [
        {
          "internalType": "address",
          "name": "_address",
          "type": "address"
        },
        {
          "internalType": "int256",
          "name": "rating",
          "type": "int256"
        },
        {
          "internalType": "int256",
          "name": "cred",
          "type": "int256"
        }
      ],
      "name": "addRating",
      "outputs": [],
      "stateMutability": "nonpayable",
      "type": "function"
    },
    {
      "inputs": [
        {
          "internalType": "address",
          "name": "_address",
          "type": "address"
        }
      ],
      "name": "modifyRating",
      "outputs": [],
      "stateMutability": "nonpayable",
      "type": "function"
    },
    {
      "inputs": [
        {
          "internalType": "string",
          "name": "location",
          "type": "string"
        },
        {
          "internalType": "uint256",
          "name": "processingCapability",
          "type": "uint256"
        },
        {
          "internalType": "int256",
          "name": "rating",
          "type": "int256"
        }
      ],
      "name": "registerFogNode",
      "outputs": [],
      "stateMutability": "nonpayable",
      "type": "function"
    }
  ],
  "bytecode": "0x608060405234801561001057600080fd5b50611141806100206000396000f3fe608060405234801561001057600080fd5b50600436106100575760003560e01c806307889dda1461005c5780632ca5fa881461007857806346d2499514610094578063a96fadc5146100c4578063eef4a9e4146100f4575b600080fd5b61007660048036038101906100719190610a47565b610110565b005b610092600480360381019061008d9190610b14565b610276565b005b6100ae60048036038101906100a99190610b14565b6103de565b6040516100bb9190610b50565b60405180910390f35b6100de60048036038101906100d99190610b14565b61050b565b6040516100eb9190610d4c565b60405180910390f35b61010e60048036038101906101099190610d6e565b6106b7565b005b60008067ffffffffffffffff81111561012c5761012b6108b0565b5b60405190808252806020026020018201604052801561015a5781602001602082028036833780820191505090505b5090506040518060a001604052803373ffffffffffffffffffffffffffffffffffffffff168152602001858152602001848152602001828152602001838152506000803373ffffffffffffffffffffffffffffffffffffffff1673ffffffffffffffffffffffffffffffffffffffff16815260200190815260200160002060008201518160000160006101000a81548173ffffffffffffffffffffffffffffffffffffffff021916908373ffffffffffffffffffffffffffffffffffffffff160217905550602082015181600101908051906020019061023b92919061072f565b506040820151816002015560608201518160030190805190602001906102629291906107b5565b506080820151816004015590505050505050565b6000805b6000808473ffffffffffffffffffffffffffffffffffffffff1673ffffffffffffffffffffffffffffffffffffffff16815260200190815260200160002060030180549050811015610344576000808473ffffffffffffffffffffffffffffffffffffffff1673ffffffffffffffffffffffffffffffffffffffff168152602001908152602001600020600301818154811061031957610318610dc1565b5b90600052602060002001548261032f9190610e1f565b9150808061033c90610eb3565b91505061027a565b506000808373ffffffffffffffffffffffffffffffffffffffff1673ffffffffffffffffffffffffffffffffffffffff16815260200190815260200160002060030180549050816103959190610f2a565b6000808473ffffffffffffffffffffffffffffffffffffffff1673ffffffffffffffffffffffffffffffffffffffff168152602001908152602001600020600401819055505050565b6000806000905060005b6000808573ffffffffffffffffffffffffffffffffffffffff1673ffffffffffffffffffffffffffffffffffffffff168152602001908152602001600020600301805490508110156104b2576000808573ffffffffffffffffffffffffffffffffffffffff1673ffffffffffffffffffffffffffffffffffffffff168152602001908152602001600020600301818154811061048757610486610dc1565b5b90600052602060002001548261049d9190610e1f565b915080806104aa90610eb3565b9150506103e8565b506000808473ffffffffffffffffffffffffffffffffffffffff1673ffffffffffffffffffffffffffffffffffffffff16815260200190815260200160002060030180549050816105039190610f2a565b915050919050565b610513610802565b6000808373ffffffffffffffffffffffffffffffffffffffff1673ffffffffffffffffffffffffffffffffffffffff1681526020019081526020016000206040518060a00160405290816000820160009054906101000a900473ffffffffffffffffffffffffffffffffffffffff1673ffffffffffffffffffffffffffffffffffffffff1673ffffffffffffffffffffffffffffffffffffffff1681526020016001820180546105c290610fc3565b80601f01602080910402602001604051908101604052809291908181526020018280546105ee90610fc3565b801561063b5780601f106106105761010080835404028352916020019161063b565b820191906000526020600020905b81548152906001019060200180831161061e57829003601f168201915b50505050508152602001600282015481526020016003820180548060200260200160405190810160405280929190818152602001828054801561069d57602002820191906000526020600020905b815481526020019060010190808311610689575b505050505081526020016004820154815250509050919050565b6000808473ffffffffffffffffffffffffffffffffffffffff1673ffffffffffffffffffffffffffffffffffffffff16815260200190815260200160002060030181836107049190610ff4565b9080600181540180825580915050600190039060005260206000200160009091909190915055505050565b82805461073b90610fc3565b90600052602060002090601f01602090048101928261075d57600085556107a4565b82601f1061077657805160ff19168380011785556107a4565b828001600101855582156107a4579182015b828111156107a3578251825591602001919060010190610788565b5b5090506107b19190610847565b5090565b8280548282559060005260206000209081019282156107f1579160200282015b828111156107f05782518255916020019190600101906107d5565b5b5090506107fe9190610864565b5090565b6040518060a00160405280600073ffffffffffffffffffffffffffffffffffffffff168152602001606081526020016000815260200160608152602001600081525090565b5b80821115610860576000816000905550600101610848565b5090565b5b8082111561087d576000816000905550600101610865565b5090565b6000604051905090565b600080fd5b600080fd5b600080fd5b600080fd5b6000601f19601f8301169050919050565b7f4e487b7100000000000000000000000000000000000000000000000000000000600052604160045260246000fd5b6108e88261089f565b810181811067ffffffffffffffff82111715610907576109066108b0565b5b80604052505050565b600061091a610881565b905061092682826108df565b919050565b600067ffffffffffffffff821115610946576109456108b0565b5b61094f8261089f565b9050602081019050919050565b82818337600083830152505050565b600061097e6109798461092b565b610910565b90508281526020810184848401111561099a5761099961089a565b5b6109a584828561095c565b509392505050565b600082601f8301126109c2576109c1610895565b5b81356109d284826020860161096b565b91505092915050565b6000819050919050565b6109ee816109db565b81146109f957600080fd5b50565b600081359050610a0b816109e5565b92915050565b6000819050919050565b610a2481610a11565b8114610a2f57600080fd5b50565b600081359050610a4181610a1b565b92915050565b600080600060608486031215610a6057610a5f61088b565b5b600084013567ffffffffffffffff811115610a7e57610a7d610890565b5b610a8a868287016109ad565b9350506020610a9b868287016109fc565b9250506040610aac86828701610a32565b9150509250925092565b600073ffffffffffffffffffffffffffffffffffffffff82169050919050565b6000610ae182610ab6565b9050919050565b610af181610ad6565b8114610afc57600080fd5b50565b600081359050610b0e81610ae8565b92915050565b600060208284031215610b2a57610b2961088b565b5b6000610b3884828501610aff565b91505092915050565b610b4a81610a11565b82525050565b6000602082019050610b656000830184610b41565b92915050565b610b7481610ad6565b82525050565b600081519050919050565b600082825260208201905092915050565b60005b83811015610bb4578082015181840152602081019050610b99565b83811115610bc3576000848401525b50505050565b6000610bd482610b7a565b610bde8185610b85565b9350610bee818560208601610b96565b610bf78161089f565b840191505092915050565b610c0b816109db565b82525050565b600081519050919050565b600082825260208201905092915050565b6000819050602082019050919050565b610c4681610a11565b82525050565b6000610c588383610c3d565b60208301905092915050565b6000602082019050919050565b6000610c7c82610c11565b610c868185610c1c565b9350610c9183610c2d565b8060005b83811015610cc2578151610ca98882610c4c565b9750610cb483610c64565b925050600181019050610c95565b5085935050505092915050565b600060a083016000830151610ce76000860182610b6b565b5060208301518482036020860152610cff8282610bc9565b9150506040830151610d146040860182610c02565b5060608301518482036060860152610d2c8282610c71565b9150506080830151610d416080860182610c3d565b508091505092915050565b60006020820190508181036000830152610d668184610ccf565b905092915050565b600080600060608486031215610d8757610d8661088b565b5b6000610d9586828701610aff565b9350506020610da686828701610a32565b9250506040610db786828701610a32565b9150509250925092565b7f4e487b7100000000000000000000000000000000000000000000000000000000600052603260045260246000fd5b7f4e487b7100000000000000000000000000000000000000000000000000000000600052601160045260246000fd5b6000610e2a82610a11565b9150610e3583610a11565b9250817f7fffffffffffffffffffffffffffffffffffffffffffffffffffffffffffffff03831360008312151615610e7057610e6f610df0565b5b817f8000000000000000000000000000000000000000000000000000000000000000038312600083121615610ea857610ea7610df0565b5b828201905092915050565b6000610ebe826109db565b91507fffffffffffffffffffffffffffffffffffffffffffffffffffffffffffffffff8203610ef057610eef610df0565b5b600182019050919050565b7f4e487b7100000000000000000000000000000000000000000000000000000000600052601260045260246000fd5b6000610f3582610a11565b9150610f4083610a11565b925082610f5057610f4f610efb565b5b600160000383147f800000000000000000000000000000000000000000000000000000000000000083141615610f8957610f88610df0565b5b828205905092915050565b7f4e487b7100000000000000000000000000000000000000000000000000000000600052602260045260246000fd5b60006002820490506001821680610fdb57607f821691505b602082108103610fee57610fed610f94565b5b50919050565b6000610fff82610a11565b915061100a83610a11565b9250827f7fffffffffffffffffffffffffffffffffffffffffffffffffffffffffffffff048211600084136000841316161561104957611048610df0565b5b817f8000000000000000000000000000000000000000000000000000000000000000058312600084126000841316161561108657611085610df0565b5b827f800000000000000000000000000000000000000000000000000000000000000005821260008413600084121616156110c3576110c2610df0565b5b827f7fffffffffffffffffffffffffffffffffffffffffffffffffffffffffffffff0582126000841260008412161615611100576110ff610df0565b5b82820290509291505056fea2646970667358221220ff9147b940ab1fa9c23d20c3983d779cb33cb82de7b8c8f0362ea30815dd775864736f6c634300080d0033",
  "immutableReferences": {},
  "source": "//SPDX-License-Identifier: MIT\r\npragma solidity ^0.8.0;\r\n\r\ncontract FogNodeManagement{\r\n    struct FogNode {\r\n        address owner;\r\n        string location;\r\n        uint processingCapability;\r\n        int[] ratings;\r\n        int rating;\r\n    }\r\n    \r\n    mapping(address => FogNode) private fogNodes;\r\n\r\n    function givefogNodes(address _address) public view returns (FogNode memory) {\r\n        return fogNodes[_address];\r\n    }\r\n\r\n    function giveThreshold(address _address) public view returns (int) {\r\n        int sum = 0;\r\n        for(uint i = 0; i < fogNodes[_address].ratings.length; i++){\r\n            sum += fogNodes[_address].ratings[i];\r\n        }\r\n        return sum / int(fogNodes[_address].ratings.length);\r\n    }\r\n\r\n    function addRating(address _address, int rating, int cred) public {\r\n        fogNodes[_address].ratings.push(rating*cred);\r\n    }\r\n\r\n    function modifyRating(address _address) public {\r\n        int sum = 0;\r\n        for(uint i = 0; i < fogNodes[_address].ratings.length; i++){\r\n            sum += fogNodes[_address].ratings[i];\r\n        }\r\n        fogNodes[_address].rating = sum / int(fogNodes[_address].ratings.length);\r\n    }\r\n\r\n    function registerFogNode(string memory location, uint processingCapability, int rating) public {\r\n        int[] memory empty = new int[](0);\r\n        fogNodes[msg.sender] = FogNode(msg.sender, location, processingCapability, empty, rating);\r\n    }\r\n\r\n}",
  "sourcePath": "C:\\Users\\Kartik\\OneDrive\\Desktop\\cs540\\project\\contracts\\FogNodeManagement.sol",
  "compiler": {
    "name": "solc",
    "version": "0.8.13+commit.abaa5c0e.Emscripten.clang"
  },
  "schemaVersion": "3.4.16",
  "updatedAt": "2023-11-22T16:06:13.504Z",
  "networkType": "ethereum",
  "devdoc": {
    "kind": "dev",
    "methods": {},
    "version": 1
  },
  "userdoc": {
    "kind": "user",
    "methods": {},
    "version": 1
  }
}