{
  "contractName": "Reputation",
  "abi": [
    {
      "inputs": [
        {
          "internalType": "address",
          "name": "fogNodeManagementAddress",
          "type": "address"
        }
      ],
      "stateMutability": "nonpayable",
      "type": "constructor"
    },
    {
      "inputs": [
        {
          "internalType": "address",
          "name": "",
          "type": "address"
        }
      ],
      "name": "reputationScores",
      "outputs": [
        {
          "internalType": "uint256",
          "name": "",
          "type": "uint256"
        }
      ],
      "stateMutability": "view",
      "type": "function",
      "constant": true
    },
    {
      "inputs": [
        {
          "internalType": "address",
          "name": "fogNode",
          "type": "address"
        },
        {
          "internalType": "uint256",
          "name": "score",
          "type": "uint256"
        }
      ],
      "name": "updateReputation",
      "outputs": [],
      "stateMutability": "nonpayable",
      "type": "function"
    }
  ],
  "bytecode": "0x608060405234801561001057600080fd5b506040516108fd3803806108fd833981810160405281019061003291906100db565b806000806101000a81548173ffffffffffffffffffffffffffffffffffffffff021916908373ffffffffffffffffffffffffffffffffffffffff16021790555050610108565b600080fd5b600073ffffffffffffffffffffffffffffffffffffffff82169050919050565b60006100a88261007d565b9050919050565b6100b88161009d565b81146100c357600080fd5b50565b6000815190506100d5816100af565b92915050565b6000602082840312156100f1576100f0610078565b5b60006100ff848285016100c6565b91505092915050565b6107e6806101176000396000f3fe608060405234801561001057600080fd5b50600436106100365760003560e01c8063f5c91a081461003b578063fe0438b214610057575b600080fd5b610055600480360381019061005091906102f6565b610087565b005b610071600480360381019061006c9190610336565b610236565b60405161007e9190610372565b60405180910390f35b600073ffffffffffffffffffffffffffffffffffffffff1660008054906101000a900473ffffffffffffffffffffffffffffffffffffffff1673ffffffffffffffffffffffffffffffffffffffff1663a96fadc5846040518263ffffffff1660e01b81526004016100f8919061039c565b600060405180830381865afa158015610115573d6000803e3d6000fd5b505050506040513d6000823e3d601f19601f8201168201806040525081019061013e9190610605565b6000015173ffffffffffffffffffffffffffffffffffffffff1603610198576040517f08c379a000000000000000000000000000000000000000000000000000000000815260040161018f906106ab565b60405180910390fd5b600281600160008573ffffffffffffffffffffffffffffffffffffffff1673ffffffffffffffffffffffffffffffffffffffff168152602001908152602001600020546101e591906106fa565b6101ef919061077f565b600160008473ffffffffffffffffffffffffffffffffffffffff1673ffffffffffffffffffffffffffffffffffffffff168152602001908152602001600020819055505050565b60016020528060005260406000206000915090505481565b6000604051905090565b600080fd5b600080fd5b600073ffffffffffffffffffffffffffffffffffffffff82169050919050565b600061028d82610262565b9050919050565b61029d81610282565b81146102a857600080fd5b50565b6000813590506102ba81610294565b92915050565b6000819050919050565b6102d3816102c0565b81146102de57600080fd5b50565b6000813590506102f0816102ca565b92915050565b6000806040838503121561030d5761030c610258565b5b600061031b858286016102ab565b925050602061032c858286016102e1565b9150509250929050565b60006020828403121561034c5761034b610258565b5b600061035a848285016102ab565b91505092915050565b61036c816102c0565b82525050565b60006020820190506103876000830184610363565b92915050565b61039681610282565b82525050565b60006020820190506103b1600083018461038d565b92915050565b600080fd5b6000601f19601f8301169050919050565b7f4e487b7100000000000000000000000000000000000000000000000000000000600052604160045260246000fd5b610405826103bc565b810181811067ffffffffffffffff82111715610424576104236103cd565b5b80604052505050565b600061043761024e565b905061044382826103fc565b919050565b600080fd5b60008151905061045c81610294565b92915050565b600080fd5b600080fd5b600067ffffffffffffffff821115610487576104866103cd565b5b610490826103bc565b9050602081019050919050565b60005b838110156104bb5780820151818401526020810190506104a0565b838111156104ca576000848401525b50505050565b60006104e36104de8461046c565b61042d565b9050828152602081018484840111156104ff576104fe610467565b5b61050a84828561049d565b509392505050565b600082601f83011261052757610526610462565b5b81516105378482602086016104d0565b91505092915050565b60008151905061054f816102ca565b92915050565b60006080828403121561056b5761056a6103b7565b5b610575608061042d565b905060006105858482850161044d565b600083015250602082015167ffffffffffffffff8111156105a9576105a8610448565b5b6105b584828501610512565b602083015250604082015167ffffffffffffffff8111156105d9576105d8610448565b5b6105e584828501610512565b60408301525060606105f984828501610540565b60608301525092915050565b60006020828403121561061b5761061a610258565b5b600082015167ffffffffffffffff8111156106395761063861025d565b5b61064584828501610555565b91505092915050565b600082825260208201905092915050565b7f466f67206e6f6465206e6f7420726567697374657265642e0000000000000000600082015250565b600061069560188361064e565b91506106a08261065f565b602082019050919050565b600060208201905081810360008301526106c481610688565b9050919050565b7f4e487b7100000000000000000000000000000000000000000000000000000000600052601160045260246000fd5b6000610705826102c0565b9150610710836102c0565b9250827fffffffffffffffffffffffffffffffffffffffffffffffffffffffffffffffff03821115610745576107446106cb565b5b828201905092915050565b7f4e487b7100000000000000000000000000000000000000000000000000000000600052601260045260246000fd5b600061078a826102c0565b9150610795836102c0565b9250826107a5576107a4610750565b5b82820490509291505056fea26469706673582212202a6db66b232921b6d48cc22539c4d2326e364457547ecf8398d6ae771218aa1364736f6c634300080d0033",
  "immutableReferences": {},
  "source": "//SPDX-License-Identifier: MIT\r\npragma solidity ^0.8.0;\r\n\r\nimport \"./FogNodeManagement.sol\";\r\n\r\ncontract Reputation {\r\n    FogNodeManagement fogNodeManagement;\r\n    mapping(address => uint) public reputationScores;\r\n\r\n    constructor(address fogNodeManagementAddress) {\r\n        fogNodeManagement = FogNodeManagement(fogNodeManagementAddress);\r\n    }\r\n\r\n    function updateReputation(address fogNode, uint score) public {\r\n        require(fogNodeManagement.givefogNodes(fogNode).owner != address(0), \"Fog node not registered.\");\r\n        // Simplified reputation calculation\r\n        reputationScores[fogNode] = (reputationScores[fogNode] + score) / 2;\r\n    }\r\n}",
  "sourcePath": "C:\\Users\\Kartik\\OneDrive\\Desktop\\cs540\\project\\contracts\\Reputation.sol",
  "compiler": {
    "name": "solc",
    "version": "0.8.13+commit.abaa5c0e.Emscripten.clang"
  },
  "schemaVersion": "3.4.16",
  "updatedAt": "2023-11-19T10:21:31.990Z",
  "networkType": "ethereum",
  "devdoc": {
    "kind": "dev",
    "methods": {},
    "version": 1
  },
  "userdoc": {
    "kind": "user",
    "methods": {},
    "version": 1
  }
}